S01700004763634170706C69636174696F6E312E737265635B
S11300000C9456000C9460000C9460000C946000F6
S11300100C9460000C9460000C9460000C946000DC
S11300200C9460000C9460000C9460000C946000CC
S11300300C9460000C9460000C9460000C946000BC
S11300400C9460000C9460000C9460000C946000AC
S11300500C9460000C9460000C9460000C9460009C
S11300600C9460000C9460000C9460000C9460008C
S11300700C9460000C9460000C9460000C9460007C
S11300800C9460000C9460000C9460000C9460006C
S11300900C9460000C9460000C9460000C9460005C
S11300A00C9460000C9460000C94600011241FBE3A
S11300B0CFEFDAE0DEBFCDBF0E94A6000C94F100C2
S11300C00C9400008AB181608AB90895882321F0D4
S11300D08BB181608BB908958BB18E7F8BB90895F4
S11300E0DC01CB01880F991FAA1FBB1F880F991F22
S11300F0AA1FBB1F9C01AD01220F331F441F551FB4
S1130100220F331F441F551F60E074E284EF90E018
S11301100E94CF00BA01A901415051096109710936
S1130120BB27A72F962F852F8093CD004093CC001B
S113013088E18093C90086E08093CA000895909175
S1130140C80095FFFCCF8093CE00089560E875E267
S113015080E090E00E9470000E946200C1E481E0AF
S11301600E9466002FEF83ED90E321508040904081
S1130170E1F700C000008C2F0E949F00CA3509F4EB
S1130180C1E4CF5F80E00E9466002FEF83ED90E32F
S1130190215080409040E1F700C00000E0CFA1E290
S11301A01A2EAA1BBB1BFD010DC0AA1FBB1FEE1FED
S11301B0FF1FA217B307E407F50720F0A21BB30B38
S11301C0E40BF50B661F771F881F991F1A9469F7B4
S11301D060957095809590959B01AC01BD01CF0110
S10901E00895F894FFCF1E
S9030000FC
